:100000000EC028C027C06EC125C024C023C022C096
:1000100021C020C01FC01EC01DC01CC01BC0112499
:100020001FBECFE5D2E0DEBFCDBF10E0A0E6B0E05E
:10003000EEE6F8E002C005900D92A236B107D9F7BE
:1000400010E0A2E6B0E001C01D92A937B107E1F7C8
:1000500020D00BC4D5CF019739F0019729F0880F34
:10006000991F01970197F1F708950F931F93CF936D
:10007000DF938C01C0E0D0E004C088EE93E0EBDFBA
:100080002196C017D107C8F3DF91CF911F910F912F
:100090000895CF92DF92EF92FF920F931F93DF9319
:1000A000CF9300D000D000D0CDB7DEB78E010F5F68
:1000B0001F4FC80104D2C80161E017D2C80160E037
:1000C00070E033D380ED97E0D0DFC80164EB70E0DF
:1000D0002CD380ED97E0C9DFC8016AE570E025D335
:1000E00080ED97E0C2DFEE24FF24680109C0C6015D
:1000F000B7011BD38FE090E0B8DF0894E11CF11C3E
:1001000084EBE816F1049CF304EB10E0C601B8019F
:100110000CD38FE090E0A9DF0150104001301105B1
:10012000A9F7EE24FF24ECCF853068F4E82FF0E047
:10013000EE0FFF1FEE0FFF1FDF01A959BF4F1C92EB
:10014000EB59FF4F138208958530B8F4E82FF0E0A3
:10015000EE0FFF1FEE0FFF1FEB59FF4F8381882328
:1001600061F023E0769567952A95E1F76054704039
:100170006F3F710509F008F4608308958530B0F48D
:10018000E82FF0E0EE0FFF1FEE0FFF1FEB59FF4FC0
:100190008381882359F08081282F30E0285F3F4FEA
:1001A00043E0220F331F4A95E1F702C020E030E020
:1001B000C9010895853058F4E82FF0E0EE0FFF1FD5
:1001C000EE0FFF1FEB59FF4F83818111618308956B
:1001D0008530A0F4A82FB0E0FD01EE0FFF1FEE0F59
:1001E000FF1FEB59FF4F8381882341F0AA0FBB1FEC
:1001F000AA0FBB1FA959BF4F8C91089580E00895A5
:1002000010BE80B7877F80BF80B7846080BF80B713
:10021000826080BF80B7816080BF0895F1DF89B7B9
:10022000806489BF1FBC8FEF8EBD78940895CF93F3
:10023000DF93853030F5C82FD0E0FE01EE0FFF1FB1
:10024000EE0FFF1FEB59FF4F83818823D1F0662308
:1002500089F080916200882321F4E0DF81E08093BF
:100260006200CC0FDD1FCC0FDD1FC959DF4F81E0CD
:10027000888307C0CC0FDD1FCC0FDD1FC959DF4FAE
:100280001882DF91CF910895E5E6F0E080E8808361
:10029000118212821382349690E0E937F907B9F798
:1002A00081E080936300089580916300882309F4BE
:1002B000EBDFA8E6B0E0E0E0F0E09E2F8C91882331
:1002C00049F4EE0FFF1FEE0FFF1FEB59FF4F81E0C8
:1002D000838306C031961496E530F10571F79FEFE0
:1002E000892F08951F920F920FB60F9211242F930A
:1002F0003F938F939F93EF93FF93209160003091F2
:1003000061002130310509F45CC0223031051CF454
:10031000232BE1F1B3C02230310509F4A6C023300C
:10032000310509F0ABC0809164008F5F8093640059
:1003300080916400853011F410926400E0916400B3
:10034000F0E0EE0FFF1FEE0FFF1FE959FF4F808116
:100350008823A1F088B3E0916400F0E0EE0FFF1F66
:10036000EE0FFF1FEB59FF4F21E030E0018002C08C
:10037000220F331F0A94E2F7822B88BB1FBC8CE349
:100380008EBD109261001092600078C0E091640010
:10039000F0E0EE0FFF1FEE0FFF1FEB59FF4F8081C4
:1003A0008EBD81E090E090936100809360001FBC5F
:1003B0008EB5882319F48FEF8FBD60C080E188BFB0
:1003C0005DC0E0916400F0E0EE0FFF1FEE0FFF1F35
:1003D000E959FF4F80818823A1F088B3E091640040
:1003E000F0E0EE0FFF1FEE0FFF1FEB59FF4F0180F4
:1003F00002C0220F331F0A94E2F7922F90959823A0
:1004000098BBE0916400F0E0EE0FFF1FEE0FFF1FBE
:10041000EB59FF4F808190E0803C91058CF083E0A8
:1004200090E09093610080936000E0916400F0E0C0
:10043000EE0FFF1FEE0FFF1FEB59FF4F80EC10C0B8
:1004400082E090E09093610080936000E09164000E
:10045000F0E0EE0FFF1FEE0FFF1FEB59FF4F8FEB8A
:100460009081891B8EBD1FBC09C083E090E09093F2
:100470006100809360001FBC8FEF8EBDFF91EF91F4
:100480009F918F913F912F910F900FBE0F901F90D2
:1004900018950F931F938C01FC01818180838FEF4E
:1004A000818380E292E09383828380E699E0958362
:1004B0008483FADEF80180831F910F9108950F93D2
:1004C0001F938C01FC01818180838FEF818380E207
:1004D00092E09383828380E699E095838483E4DECF
:1004E000F80180831F910F910895CF93DF93EC0162
:1004F00038818981381711F480E01EC06630D8F445
:1005000027B381E090E0062E02C0880F991F0A945D
:10051000E2F7282B27BB353058F4E32FF0E0EE0F3D
:10052000FF1FEE0FFF1FEB59FF4F83818111618386
:10053000888161E07CDE8881DF91CF910895FC01A4
:100540005383428335832483D0DF0895CF93DF9391
:10055000EC01E881E53060F4F0E0EE0FFF1FEE0FF4
:10056000FF1FDF01A959BF4F1C92EB59FF4F1382A8
:1005700089818883DF91CF910895FC0190818181E9
:10058000981711F0892FE0DD0895FC019081818199
:100590009817B9F09530A8F4E92FF0E0EE0FFF1F9F
:1005A000EE0FFF1FEB59FF4F8381882351F08081AD
:1005B000E82FF0E0389673E0EE0FFF1F7A95E1F731
:1005C00002C0E0E0F0E0CF010895FC01908181815C
:1005D0009817B1F09530A0F4A92FB0E0FD01EE0F0F
:1005E000FF1FEE0FFF1FEB59FF4F8381882341F060
:1005F000AA0FBB1FAA0FBB1FA959BF4F8C9108950B
:1006000080E008954F925F926F927F928F929F92B7
:10061000AF92BF92CF92DF92EF92FF920F931F9310
:10062000DF93CF9300D000D0CDB7DEB72A013B01D6
:1006300009831A832B833C836F89788D898D9A8DEA
:10064000681979098A099B09401A510A620A730AD2
:10065000A3019201B4D029813A814B815C81C21AF5
:10066000D30AE40AF50AA7019601C2D0280D391D64
:100670004A1D5B1DB901CA010F900F900F900F909A
:10068000CF91DF911F910F91FF90EF90DF90CF906E
:10069000BF90AF909F908F907F906F905F904F90A2
:1006A00008958F929F92AF92BF92CF92DF92EF9276
:1006B000FF920F931F93CF93DF93EC019881898171
:1006C000981719F460E070E022C0CE015EDF00D020
:1006D00000D0AC0160E070E00A811B8120E030E0D6
:1006E000CC80DD80EE24FF2484EB90E0A0E0B0E03D
:1006F000EDB7FEB781839283A383B483CE018824B0
:10070000992454017FDF0F900F900F900F90CB0131
:10071000DF91CF911F910F91FF90EF90DF90CF90DD
:10072000BF90AF909F908F9008958F929F92AF92BD
:10073000BF92CF92DF92EF92FF920F931F93CF93CE
:10074000DF93EC0198818981981761F1653B710510
:1007500010F0CE0126C000D000D0AB0160E070E008
:100760008A809B80AA24BB248C819D81A0E0B0E07C
:10077000EDB7FEB781839283A383B483CE0100E0FB
:1007800010E020E030E0E4EBCE2ED12CE12CF12C77
:1007900039DF0F900F900F900F909B01AC01CE01AD
:1007A000B901EBDEDF91CF911F910F91FF90EF9098
:1007B000DF90CF90BF90AF909F908F900895FF27CC
:1007C000EE27BB27AA2760FF04C0A20FB31FE41FB8
:1007D000F51F220F331F441F551F96958795779558
:1007E000679589F70097760771F7CF01BD010895E6
:1007F00097FB092E05260ED057FD04D014D00AD041
:10080000001C38F450954095309521953F4F4F4F3F
:100810005F4F0895F6F790958095709561957F4F9D
:100820008F4F9F4F0895A1E21A2EAA1BBB1BFD01FB
:100830000DC0AA1FBB1FEE1FFF1FA217B307E407BF
:10084000F50720F0A21BB30BE40BF50B661F771F17
:10085000881F991F1A9469F76095709580959095F7
:0E0860009B01AC01BD01CF010895F894FFCFBC
:02086E00030085
:00000001FF
